{
  "contractName": "ChainList",
  "abi": [
    {
      "constant": true,
      "inputs": [
        {
          "name": "",
          "type": "uint256"
        }
      ],
      "name": "projects",
      "outputs": [
        {
          "name": "id",
          "type": "uint256"
        },
        {
          "name": "seller",
          "type": "address"
        },
        {
          "name": "buyer",
          "type": "address"
        },
        {
          "name": "name",
          "type": "string"
        },
        {
          "name": "description",
          "type": "string"
        },
        {
          "name": "price",
          "type": "uint256"
        }
      ],
      "payable": false,
      "stateMutability": "view",
      "type": "function",
      "signature": "0x107046bd"
    },
    {
      "anonymous": false,
      "inputs": [
        {
          "indexed": true,
          "name": "_id",
          "type": "uint256"
        },
        {
          "indexed": true,
          "name": "_seller",
          "type": "address"
        },
        {
          "indexed": false,
          "name": "_name",
          "type": "string"
        },
        {
          "indexed": false,
          "name": "_price",
          "type": "uint256"
        }
      ],
      "name": "LogSellProject",
      "type": "event",
      "signature": "0x1f0fce4df81d784772ef96dedbd9b4753cad7a4c9b049869b750258648d548b1"
    },
    {
      "anonymous": false,
      "inputs": [
        {
          "indexed": true,
          "name": "_id",
          "type": "uint256"
        },
        {
          "indexed": true,
          "name": "_seller",
          "type": "address"
        },
        {
          "indexed": true,
          "name": "_buyer",
          "type": "address"
        },
        {
          "indexed": false,
          "name": "_name",
          "type": "string"
        },
        {
          "indexed": false,
          "name": "_price",
          "type": "uint256"
        }
      ],
      "name": "LogBuyProject",
      "type": "event",
      "signature": "0x45dec17ad91a0de25bfaa0982127a687f9cac5e8706699cbab1726433fa2b258"
    },
    {
      "constant": false,
      "inputs": [],
      "name": "kill",
      "outputs": [],
      "payable": false,
      "stateMutability": "nonpayable",
      "type": "function",
      "signature": "0x41c0e1b5"
    },
    {
      "constant": false,
      "inputs": [
        {
          "name": "_name",
          "type": "string"
        },
        {
          "name": "_description",
          "type": "string"
        },
        {
          "name": "_price",
          "type": "uint256"
        }
      ],
      "name": "sellProject",
      "outputs": [],
      "payable": false,
      "stateMutability": "nonpayable",
      "type": "function",
      "signature": "0x24a12d25"
    },
    {
      "constant": true,
      "inputs": [],
      "name": "getNumberOfProjects",
      "outputs": [
        {
          "name": "",
          "type": "uint256"
        }
      ],
      "payable": false,
      "stateMutability": "view",
      "type": "function",
      "signature": "0x19ba0b63"
    },
    {
      "constant": true,
      "inputs": [],
      "name": "getProjectsForSale",
      "outputs": [
        {
          "name": "",
          "type": "uint256[]"
        }
      ],
      "payable": false,
      "stateMutability": "view",
      "type": "function",
      "signature": "0x4a787b58"
    },
    {
      "constant": false,
      "inputs": [
        {
          "name": "_id",
          "type": "uint256"
        }
      ],
      "name": "buyProject",
      "outputs": [],
      "payable": true,
      "stateMutability": "payable",
      "type": "function",
      "signature": "0x7c047779"
    }
  ],
  "bytecode": "0x6080604052336000806101000a81548173ffffffffffffffffffffffffffffffffffffffff021916908373ffffffffffffffffffffffffffffffffffffffff160217905550610e0d806100536000396000f3fe608060405260043610610078576000357c0100000000000000000000000000000000000000000000000000000000900463ffffffff168063107046bd1461007d57806319ba0b631461021157806324a12d251461023c57806341c0e1b5146103a55780634a787b58146103bc5780637c04777914610428575b600080fd5b34801561008957600080fd5b506100b6600480360360208110156100a057600080fd5b8101908080359060200190929190505050610456565b604051808781526020018673ffffffffffffffffffffffffffffffffffffffff1673ffffffffffffffffffffffffffffffffffffffff1681526020018573ffffffffffffffffffffffffffffffffffffffff1673ffffffffffffffffffffffffffffffffffffffff1681526020018060200180602001848152602001838103835286818151815260200191508051906020019080838360005b8381101561016a57808201518184015260208101905061014f565b50505050905090810190601f1680156101975780820380516001836020036101000a031916815260200191505b50838103825285818151815260200191508051906020019080838360005b838110156101d05780820151818401526020810190506101b5565b50505050905090810190601f1680156101fd5780820380516001836020036101000a031916815260200191505b509850505050505050505060405180910390f35b34801561021d57600080fd5b50610226610602565b6040518082815260200191505060405180910390f35b34801561024857600080fd5b506103a36004803603606081101561025f57600080fd5b810190808035906020019064010000000081111561027c57600080fd5b82018360208201111561028e57600080fd5b803590602001918460018302840111640100000000831117156102b057600080fd5b91908080601f016020809104026020016040519081016040528093929190818152602001838380828437600081840152601f19601f8201169050808301925050505050505091929192908035906020019064010000000081111561031357600080fd5b82018360208201111561032557600080fd5b8035906020019184600183028401116401000000008311171561034757600080fd5b91908080601f016020809104026020016040519081016040528093929190818152602001838380828437600081840152601f19601f8201169050808301925050505050505091929192908035906020019092919050505061060c565b005b3480156103b157600080fd5b506103ba610832565b005b3480156103c857600080fd5b506103d16108a6565b6040518080602001828103825283818151815260200191508051906020019060200280838360005b838110156104145780820151818401526020810190506103f9565b505050509050019250505060405180910390f35b6104546004803603602081101561043e57600080fd5b8101908080359060200190929190505050610a36565b005b60016020528060005260406000206000915090508060000154908060010160009054906101000a900473ffffffffffffffffffffffffffffffffffffffff16908060020160009054906101000a900473ffffffffffffffffffffffffffffffffffffffff1690806003018054600181600116156101000203166002900480601f0160208091040260200160405190810160405280929190818152602001828054600181600116156101000203166002900480156105545780601f1061052957610100808354040283529160200191610554565b820191906000526020600020905b81548152906001019060200180831161053757829003601f168201915b505050505090806004018054600181600116156101000203166002900480601f0160208091040260200160405190810160405280929190818152602001828054600181600116156101000203166002900480156105f25780601f106105c7576101008083540402835291602001916105f2565b820191906000526020600020905b8154815290600101906020018083116105d557829003601f168201915b5050505050908060050154905086565b6000600254905090565b60026000815480929190600101919050555060c06040519081016040528060025481526020013373ffffffffffffffffffffffffffffffffffffffff168152602001600073ffffffffffffffffffffffffffffffffffffffff168152602001848152602001838152602001828152506001600060025481526020019081526020016000206000820151816000015560208201518160010160006101000a81548173ffffffffffffffffffffffffffffffffffffffff021916908373ffffffffffffffffffffffffffffffffffffffff16021790555060408201518160020160006101000a81548173ffffffffffffffffffffffffffffffffffffffff021916908373ffffffffffffffffffffffffffffffffffffffff1602179055506060820151816003019080519060200190610744929190610d3c565b506080820151816004019080519060200190610761929190610d3c565b5060a082015181600501559050503373ffffffffffffffffffffffffffffffffffffffff166002547f1f0fce4df81d784772ef96dedbd9b4753cad7a4c9b049869b750258648d548b185846040518080602001838152602001828103825284818151815260200191508051906020019080838360005b838110156107f25780820151818401526020810190506107d7565b50505050905090810190601f16801561081f5780820380516001836020036101000a031916815260200191505b50935050505060405180910390a3505050565b6000809054906101000a900473ffffffffffffffffffffffffffffffffffffffff1673ffffffffffffffffffffffffffffffffffffffff163373ffffffffffffffffffffffffffffffffffffffff1614151561088d57600080fd5b3373ffffffffffffffffffffffffffffffffffffffff16ff5b6060806002546040519080825280602002602001820160405280156108da5781602001602082028038833980820191505090505b50905060008090506000600190505b600254811115156109a857600073ffffffffffffffffffffffffffffffffffffffff166001600083815260200190815260200160002060020160009054906101000a900473ffffffffffffffffffffffffffffffffffffffff1673ffffffffffffffffffffffffffffffffffffffff16141561099b576001600082815260200190815260200160002060000154838381518110151561098457fe5b906020019060200201818152505081806001019250505b80806001019150506108e9565b506060816040519080825280602002602001820160405280156109da5781602001602082028038833980820191505090505b50905060008090505b82811015610a2c5783818151811015156109f957fe5b906020019060200201518282815181101515610a1157fe5b906020019060200201818152505080806001019150506109e3565b5080935050505090565b6000600254111515610a4757600080fd5b600081118015610a5957506002548111155b1515610a6457600080fd5b6000600160008381526020019081526020016000209050600073ffffffffffffffffffffffffffffffffffffffff168160020160009054906101000a900473ffffffffffffffffffffffffffffffffffffffff1673ffffffffffffffffffffffffffffffffffffffff16141515610ada57600080fd5b8060010160009054906101000a900473ffffffffffffffffffffffffffffffffffffffff1673ffffffffffffffffffffffffffffffffffffffff163373ffffffffffffffffffffffffffffffffffffffff1614151515610b3957600080fd5b806005015434141515610b4b57600080fd5b338160020160006101000a81548173ffffffffffffffffffffffffffffffffffffffff021916908373ffffffffffffffffffffffffffffffffffffffff1602179055508060010160009054906101000a900473ffffffffffffffffffffffffffffffffffffffff1673ffffffffffffffffffffffffffffffffffffffff166108fc349081150290604051600060405180830381858888f19350505050158015610bf8573d6000803e3d6000fd5b508060020160009054906101000a900473ffffffffffffffffffffffffffffffffffffffff1673ffffffffffffffffffffffffffffffffffffffff168160010160009054906101000a900473ffffffffffffffffffffffffffffffffffffffff1673ffffffffffffffffffffffffffffffffffffffff16837f45dec17ad91a0de25bfaa0982127a687f9cac5e8706699cbab1726433fa2b2588460030185600501546040518080602001838152602001828103825284818154600181600116156101000203166002900481526020019150805460018160011615610100020316600290048015610d295780601f10610cfe57610100808354040283529160200191610d29565b820191906000526020600020905b815481529060010190602001808311610d0c57829003601f168201915b5050935050505060405180910390a45050565b828054600181600116156101000203166002900490600052602060002090601f016020900481019282601f10610d7d57805160ff1916838001178555610dab565b82800160010185558215610dab579182015b82811115610daa578251825591602001919060010190610d8f565b5b509050610db89190610dbc565b5090565b610dde91905b80821115610dda576000816000905550600101610dc2565b5090565b9056fea165627a7a72305820463ce90a8f6aefd5ee514c29ccca2e967cfe8e6d866d2ad58bdeeb23459f942a0029",
  "source": "pragma solidity ^0.5.0;\n\nimport \"./Ownable.sol\";\n\ncontract ChainList is Ownable {\n  \n  struct Project {\n    uint id;\n    address payable seller;\n    address payable buyer;\n    string name;\n    string description;\n    uint256 price;    \n  }\n\n  // state variable\n  mapping (uint => Project) public projects;\n  uint projectCounter;\n\n  \n  event LogSellProject(\n    uint indexed _id,\n    address indexed _seller,\n    string _name,\n    uint256 _price\n  );\n  event LogBuyProject(\n    uint indexed _id,\n    address indexed _seller,\n    address indexed _buyer,\n    string _name,\n    uint256 _price\n  );\n\n  \n  function kill() public onlyOwner {\n    selfdestruct(msg.sender);\n  }\n\n  \n  function sellProject(string memory _name, string memory _description, uint256 _price) public {\n    projectCounter++;\n\n    projects[projectCounter] = Project(\n      projectCounter,\n      msg.sender,\n      address(0x0),\n      _name,\n      _description,\n      _price\n    );\n\n    emit LogSellProject(projectCounter, msg.sender, _name, _price);\n  }\n\n  function getNumberOfProjects() public view returns (uint) {\n    return projectCounter;\n  }\n\n  function getProjectsForSale() public view returns (uint[] memory) {\n    uint[] memory projectIds = new uint[](projectCounter);\n    uint numberOfProjectsForSale = 0;\n    for (uint i = 1; i <= projectCounter; i++) {\n      if (projects[i].buyer == address(0x0)) {\n        projectIds[numberOfProjectsForSale] = projects[i].id;\n        numberOfProjectsForSale ++;\n      }\n    }\n\n    uint[] memory forSale = new uint[](numberOfProjectsForSale);\n    for (uint j = 0; j < numberOfProjectsForSale; j++) {\n      forSale[j] = projectIds[j];\n    }\n    return forSale;\n  }\n\n\n  function buyProject(uint _id) payable public {\n    require(projectCounter > 0);\n\n    require(_id > 0 && _id <= projectCounter);\n\n    Project storage project = projects[_id];\n\n    require(project.buyer == address(0x0));\n\n    require(msg.sender != project.seller);\n    \n    require(msg.value == project.price);\n\n    project.buyer = msg.sender;\n\n    project.seller.transfer(msg.value);\n\n    emit LogBuyProject(_id, project.seller, project.buyer, project.name, project.price);\n  }\n}\n",
  "sourcePath": "D:/Marium/ProjectBlock/blocktest/contracts/ChainList.sol",
  "compiler": {
    "name": "solc",
    "version": "0.5.0+commit.1d4f565a.Emscripten.clang"
  },
  "schemaVersion": "3.0.2",
  "updatedAt": "2019-05-21T21:12:05.030Z",
  "devdoc": {
    "methods": {}
  },
  "userdoc": {
    "methods": {}
  }
}